:0300000002073ABA
:0C073A00787FE4F6D8FD75812A02078163
:060AD500012900012A00C6
:100AA3007580FFC2A5D2A6D2A7AF80C2A7EF20E769
:010AB300F64C
:010AB400221F
:100AB500AE07120AA3C2A7C2A5C2A68E80D2A7C23C
:020AC500A72266
:060A730014F91207C6FF92
:100A7900AE07120AA3C2A7D2A5C2A68E80D2A7C268
:020A8900A722A2
:100A2F00120A0B120A0B120A0B7F38120AB57F0833
:100A3F00120AB57F01120AB57F06120AB57F0C02A2
:020A4F000AB5E6
:100A8B00E4FEED146007047008AE078004EF244009
:080A9B00FEEE4480FF020AB5E3
:100A51008B228A238924120A8BAF251525EF601179
:100A6100AB220524E524AA2370020523120A738010
:020A7100E82279
:100949008B268A2789288024AB26AA27A92812075B
:10095900C660220528E52870020527120A73AF2907
:100969000529EF640F7005F529752A01AD2AAF290C
:06097900120A8B80D3225C
:050A0B007F38120AB55E
:100A10007F13EFD394007480948040127E82EED3D3
:0E0A200094007480948040031E80F31F80E4D5
:010A2E0022A5
:0E0AC70081838587898B8D80828486888A8CC6
:0609DE008B208A21892212
:1009E400752307AF231523EF601CE523900AC793F3
:1009F400FF12082EAB20AA21A92285238275830029
:060A0400EF12080C80DD7A
:010A0A0022C9
:060910008B208A218922E0
:10091600752307E4FD7F8E801EAF231523EF601C31
:10092600E523900ACE93FFAB20AA21A92285238234
:100936007583001207DFFD12088B80DD7D807F8EB8
:0309460002088B19
:10082E00E4FEFDF9C29200C29000D29200EEC39493
:10083E0008748094805011EF139291EFC313FFD27E
:10084E009000C290000E80E5E4FEEEC39408748022
:10085E009480501AA291E433F9C43333335480FF99
:10086E00EDC3134FFDD29000C290000E80DCC292F9
:0C087E0000D29000C29100D29100AF05A2
:01088A00224B
:10088B00E4FEC29200C29000D29200EEC3940874B0
:10089B008094805011EF139291EFC313FFD290000D
:1008AB00C290000E80E5E4FEEEC394087480948041
:1008BB005011ED139291EDC313FDD29000C2900035
:0608CB000E80E5C2920060
:0108D1002204
:10097F003230002E003A0031204D6F6E003220547D
:10098F007565003320576564003420546875003551
:10099F002046726900362053617400372053756EFC
:0109AF000047
:060ADB00011E00011600DF
:10000600C2AF120A2FD288D2A8D28AC2AAD2AFE52C
:1000160016700DFB7A0079171209DE1205DC80EFE7
:10002600E51660EBE51660F814B40D004003020512
:10003600D090004575F003A4C58325F0C5837302EF
:1000460005720204F302049702041C0203C00203B1
:10005600460202EB0202900202160201BB020141B5
:100066000200E602006C751F0CE51FC3132417F887
:10007600E6FF7804A2E713D8FB543F4430FF740828
:10008600251FF8A6077408251FF9E4FAFB75250154
:10009600FD7F02120A51751E0BD3E51E9400748073
:1000A600948040071209B0151E80EE20B30BE51FA1
:1000B600C3132417F8741026F6E51FC313FF24177D
:1000C600F8E6FE7804A2E713D8FBFD3395E0FCD3EF
:1000D600ED9409EC6480948050030205D002056813
:1000E600751F0CE51FC3132417F8E6543F4430FF71
:1000F6007408251FF8A6077409251FF9E4FAFB758D
:100106002501FD7F03120A51751E0BD3E51E9400CF
:100116007480948040071209B0151E80EE20B30843
:10012600E51FC3132417F806E51FC313FF2417F8AA
:10013600E6FE20E0030205D00205C8751F08E51F8C
:10014600C3132417F8E6FF7804A2E713D8FB543F3D
:100156004430FF7408251FF8A6077408251FF9E424
:10016600FAFB752501FD7F05120A51751E0BD3E5B5
:100176001E94007480948040071209B0151E80EE0C
:1001860020B30BE51FC3132417F8741026F6E51FDA
:10019600C313FF2417F8E6FE7804A2E713D8FBFD85
:1001A6003395E0FCD3ED9401EC6480948050030217
:1001B60005D0020568751F08E51FC3132417F8E666
:1001C600543F4430FF7408251FF8A6077409251FFD
:1001D600F9E4FAFB752501FD7F06120A51751E0B1F
:1001E600D3E51E94007480948040071209B0151E52
:1001F60080EE20B308E51FC3132417F806E51FC3D6
:1002060013FF2417F8E6FE20E0030205D00205C816
:10021600751F06E51FC3132417F8E6FF7804A2E747
:1002260013D8FB543F4430FF7408251FF8A6077403
:1002360008251FF9E4FAFB752501FD7F08120A510E
:10024600751E0BD3E51E9400748094804007120936
:10025600B0151E80EE20B30BE51FC3132417F874E8
:100266001026F6E51FC313FF2417F8E6FE7804A24E
:10027600E713D8FBFD3395E0FCD3ED9403EC6480E3
:10028600948050030205D0020568751F06E51FC35A
:10029600132417F8E6543F4430FF7408251FF8A6C8
:1002A600077409251FF9E4FAFB752501FD7F09127C
:1002B6000A51751E0BD3E51E940074809480400786
:1002C6001209B0151E80EE20B308E51FC3132417CC
:1002D600F806E51FC313FF2417F8E6FE20E0030225
:1002E60005D00205C8751F0AE51FC3132417F8E6D3
:1002F600543F4430FF7408251FF8A6077409251FCC
:10030600F9E4FAFB752501FD7F0B120A51751E0BE8
:10031600D3E51E94007480948040071209B0151E20
:1003260080EE20B308E51FC3132417F806E51FC3A4
:1003360013FF2417F8E6FE20E0030205D00205C8E5
:10034600751F04E51FC3132417F8E6FF7804A2E718
:1003560013D8FB543F4430FF7408251FF8A60774D2
:1003660008251FF9E4FAFB7525017D01FF120A51E4
:10037600751E0BD3E51E9400748094804007120905
:10038600B0151E80EE20B30BE51FC3132417F874B7
:100396001026F6E51FC313FF2417F8E6FE7804A21D
:1003A600E713D8FBFD3395E0FCD3ED9402EC6480B3
:1003B600948050030205D0020568751F04E51FC32B
:1003C600132417F8E6543F4430FF7408251FF8A697
:1003D600077409251FF9E4FAFB7525017D017F01E4
:1003E600120A51751E0BD3E51E940074809480404A
:1003F600071209B0151E80EE20B308E51FC31324AB
:1004060017F806E51FC313FF2417F8E6FE20E003DE
:100416000205D00205C8751F02E51FC3132417F88D
:10042600E6FF7804A2E713D8FB543F4430FF740874
:10043600251FF8A6077408251FF9E4FAFB752501A0
:100446007D017F03120A51751E0BD3E51E940074BD
:1004560080948040071209B0151E80EE20B30BE58C
:100466001FC3132417F8741026F6E51FC313FF24C1
:1004760017F8E6FE7804A2E713D8FBFD3395E0FCF7
:10048600D3ED9406EC6480948050030205D00205F7
:1004960068751F02E51FC3132417F8E6543F44305E
:1004A600FF7408251FF8A6077409251FF9E4FAFB4F
:1004B6007525017D017F04120A51751E0BD3E51EB9
:1004C60094007480948040071209B0151E80EE20B7
:1004D600B308E51FC3132417F806E51FC313FF244B
:1004E60017F8E6FE20E0030205D00205C8E4F51F72
:1004F600E51FC3132417F8E6FF7804A2E713D8FB19
:10050600543F4430FF7408251FF8A6077408251FBA
:10051600F9E4FAFB7525017D017F06120A51751E65
:100526000BD3E51E94007480948040071209B01521
:100536001E80EE20B30BE51FC3132417F874102694
:10054600F6E51FC313FF2417F8E6FE7804A2E713A7
:10055600D8FBFD3395E0FCD3ED9406EC64809480E3
:10056600406874172FF8EE540FF6805EE4F51FE529
:100576001FC3132417F8E6543F4430FF7408251FA1
:10058600F8A6077409251FF9E4FAFB7525017D0114
:100596007F07120A51751E0BD3E51E9400748094D2
:1005A6008040071209B0151E80EE20B308E51FC370
:1005B600132417F806E51FC313FF2417F8E6FE30C9
:1005C600E00874172FF8EE54F0F67B007A007917DE
:0605D60012091002002AC8
:1005DC007F07AE071FEE602E74172FF8E6543F44CA
:1005EC0030FEEF25E02409F8A60674172FF8E6FE76
:1005FC007804A2E713D8FB543F4430FEEF25E024E7
:10060C0008F8A60680CC7BFF7A09797F752502E471
:10061C00FDFF120A517B007A007914752502E4FD66
:10062C007F02120A517BFF7A097982752501E4FD5C
:10063C007F04120A517B007A007910752502E4FDC3
:10064C007F05120A517BFF7A097982752501E4FD39
:10065C007F07120A517B007A00790E752502E4FDA2
:10066C007F08120A517B007A00790C7525027D01F6
:10067C00E4FF120A517BFF7A0979847525017D010B
:10068C007F02120A517B007A00790A7525027D01DE
:10069C007F03120A517BFF7A0979847525017D014C
:1006AC007F05120A517B007A0079087525027D01BD
:1006BC007F06120A51E513540F14B40700505E90D4
:1006CC0006D975F003A4C58325F0C583730206EE25
:1006DC000206F60206FE02070602070E02071602C3
:1006EC00071E7BFF7A097986802E7BFF7A09798C2D
:1006FC0080267BFF7A097992801E7BFF7A09799894
:10070C0080167BFF7A09799E800E7BFF7A0979A48B
:10071C0080067BFF7A0979AA75250580097B007A0A
:0D072C00007913752501E4FD7F0B120A51C1
:01073900229D
:1009B0007F01EFD394007480948040217E26EED393
:1009C00094007480948040127D82EDD394007480F2
:0D09D000948040031D80F31E80E41F80D53D
:0109DD0022F7
:030003000208D21E
:0F08D200C0E0C0D075D000C004C005C006C0078C
:1008E100E4FC1209B0E516700575160D80021516A7
:1008F1007C0BECD394007480948040061209B01CE8
:0209010080F084
:0D090300D007D006D005D004D0D0D0E0320F
:10074600020006E493A3F8E493A34003F68001F2C3
:1007560008DFF48029E493A3F85407240CC8C333B4
:10076600C4540F4420C8834004F456800146F6DF83
:10077600E4800B0102040810204080900AD5E47E34
:10078600019360BCA3FF543F30E509541FFEE49378
:10079600A360010ECF54C025E060A840B8E493A33F
:1007A600FAE493A3F8E493A3C8C582C8CAC583CA6A
:1007B600F0A3C8C582C8CAC583CADFE9DEE780BE22
:010AE1000014
:1007C600BB010689828A83E0225002E722BBFE0231
:0907D600E32289828A83E4932264
:1007DF00BB010CE58229F582E5833AF583E02250CF
:1007EF0006E92582F8E622BBFE06E92582F8E22219
:0D07FF00E58229F582E5833AF583E4932233
:10080C00F8BB010DE58229F582E5833AF583E8F022
:10081C00225006E92582C8F622BBFE05E92582C8CE
:02082C00F222B6
:00000001FF
