:0300000002077183
:0C077100787FE4F6D8FD75812D0207B8F2
:060B0E00012C00012D0086
:100ADC007580FFC2A5D2A6D2A7AF80C2A7EF20E730
:010AEC00F613
:010AED0022E6
:100AEE00AE07120ADCC2A7C2A5C2A68E80D2A7C2CA
:020AFE00A7222D
:060AAC0014F91207FDFF22
:100AB200AE07120ADCC2A7D2A5C2A68E80D2A7C2F6
:020AC200A72269
:100A6800120A44120A44120A447F38120AEE7F0816
:100A7800120AEE7F01120AEE7F06120AEE7F0C02BE
:020A88000AEE74
:100AC400E4FEED146007047008AE078004EF2440D0
:080AD400FEEE4480FF020AEE71
:100A8A008B258A268927120AC4AF281528EF6011F8
:100A9A00AB250527E527AA2670020526120AAC808F
:020AAA00E82240
:100980008B298A2A892B8024AB29AA2AA92B120712
:10099000FD6022052BE52B7002052A120AACAF2C54
:1009A000052CEF640F7005F52C752D01AD2DAF2CC6
:0609B000120AC480D322EC
:050A44007F38120AEEEC
:100A49007F13EFD394007480948040127E82EED39A
:0E0A590094007480948040031E80F31F80E49C
:010A6700226C
:0E0B00008183858B87898D8082848A86888C8C
:060A17008B208A218922D8
:100A1D00752307AF231523EF601CE523900B00937F
:100A2D00FF120865AB20AA21A922852382758300B8
:060A3D00EF12084380DD0A
:010A43002290
:060947008B208A218922A9
:10094D00752307E4FD7F8E801EAF231523EF601CFA
:10095D00E523900B0793FFAB20AA21A922852382C3
:10096D00758300120816FD1208C280DD7D807F8E12
:03097D000208C2AB
:10086500E4FEFDF9C29200C29000D29200EEC3945C
:1008750008748094805011EF139291EFC313FFD247
:100885009000C290000E80E5E4FEEEC394087480EB
:100895009480501AA291E433F9C43333335480FF62
:1008A500EDC3134FFDD29000C290000E80DCC292C2
:0C08B50000D29000C29100D29100AF056B
:0108C1002214
:1008C200E4FEC29200C29000D29200EEC394087479
:1008D2008094805011EF139291EFC313FFD29000D6
:1008E200C290000E80E5E4FEEEC39408748094800A
:1008F2005011ED139291EDC313FDD29000C29000FE
:060902000E80E5C2920028
:0109080022CC
:1009B60032300020002E0031204D6F6E0032205460
:1009C600756500332057656400342054687500351A
:1009D6002046726900362053617400372053756EC5
:0309E600003A00D4
:060B1400011E00011600A5
:10000600C2AF120A68D288D2A8D28AC2AAD2AFE5F3
:1000160016700DFB7A007917120A171205DC80EFAD
:10002600E51660EBE51660F814B40D004003020512
:10003600D090004575F003A4C58325F0C5837302EF
:1000460005720204F302049702041C0203C00203B1
:10005600460202EB0202900202160201BB020141B5
:100066000200E602006C751F0CE51FC3132417F887
:10007600E6FF7804A2E713D8FB543F4430FF740828
:10008600251FF8A6077408251FF9E4FAFB75280151
:10009600FD7F02120A8A751E0BD3E51E940074803A
:1000A600948040071209E9151E80EE20B30BE51F68
:1000B600C3132417F8741026F6E51FC313FF24177D
:1000C600F8E6FE7804A2E713D8FBFD3395E0FCD3EF
:1000D600ED9409EC6480948050030205D002056813
:1000E600751F0CE51FC3132417F8E6543F4430FF71
:1000F6007408251FF8A6077409251FF9E4FAFB758D
:100106002801FD7F03120A8A751E0BD3E51E940093
:100116007480948040071209E9151E80EE20B3080A
:10012600E51FC3132417F806E51FC313FF2417F8AA
:10013600E6FE20E0030205D00205C8751F08E51F8C
:10014600C3132417F8E6FF7804A2E713D8FB543F3D
:100156004430FF7408251FF8A6077408251FF9E424
:10016600FAFB752801FD7F05120A8A751E0BD3E579
:100176001E94007480948040071209E9151E80EED3
:1001860020B30BE51FC3132417F8741026F6E51FDA
:10019600C313FF2417F8E6FE7804A2E713D8FBFD85
:1001A6003395E0FCD3ED9401EC6480948050030217
:1001B60005D0020568751F08E51FC3132417F8E666
:1001C600543F4430FF7408251FF8A6077409251FFD
:1001D600F9E4FAFB752801FD7F06120A8A751E0BE3
:1001E600D3E51E94007480948040071209E9151E19
:1001F60080EE20B308E51FC3132417F806E51FC3D6
:1002060013FF2417F8E6FE20E0030205D00205C816
:10021600751F06E51FC3132417F8E6FF7804A2E747
:1002260013D8FB543F4430FF7408251FF8A6077403
:1002360008251FF9E4FAFB752801FD7F08120A8AD2
:10024600751E0BD3E51E9400748094804007120936
:10025600E9151E80EE20B30BE51FC3132417F874AF
:100266001026F6E51FC313FF2417F8E6FE7804A24E
:10027600E713D8FBFD3395E0FCD3ED9403EC6480E3
:10028600948050030205D0020568751F06E51FC35A
:10029600132417F8E6543F4430FF7408251FF8A6C8
:1002A600077409251FF9E4FAFB752801FD7F091279
:1002B6000A8A751E0BD3E51E94007480948040074D
:1002C6001209E9151E80EE20B308E51FC313241793
:1002D600F806E51FC313FF2417F8E6FE20E0030225
:1002E60005D00205C8751F0AE51FC3132417F8E6D3
:1002F600543F4430FF7408251FF8A6077409251FCC
:10030600F9E4FAFB752801FD7F0B120A8A751E0BAC
:10031600D3E51E94007480948040071209E9151EE7
:1003260080EE20B308E51FC3132417F806E51FC3A4
:1003360013FF2417F8E6FE20E0030205D00205C8E5
:10034600751F04E51FC3132417F8E6FF7804A2E718
:1003560013D8FB543F4430FF7408251FF8A60774D2
:1003660008251FF9E4FAFB7528017D01FF120A8AA8
:10037600751E0BD3E51E9400748094804007120905
:10038600E9151E80EE20B30BE51FC3132417F8747E
:100396001026F6E51FC313FF2417F8E6FE7804A21D
:1003A600E713D8FBFD3395E0FCD3ED9402EC6480B3
:1003B600948050030205D0020568751F04E51FC32B
:1003C600132417F8E6543F4430FF7408251FF8A697
:1003D600077409251FF9E4FAFB7528017D017F01E1
:1003E600120A8A751E0BD3E51E9400748094804011
:1003F600071209E9151E80EE20B308E51FC3132472
:1004060017F806E51FC313FF2417F8E6FE20E003DE
:100416000205D00205C8751F02E51FC3132417F88D
:10042600E6FF7804A2E713D8FB543F4430FF740874
:10043600251FF8A6077408251FF9E4FAFB7528019D
:100446007D017F03120A8A751E0BD3E51E94007484
:1004560080948040071209E9151E80EE20B30BE553
:100466001FC3132417F8741026F6E51FC313FF24C1
:1004760017F8E6FE7804A2E713D8FBFD3395E0FCF7
:10048600D3ED9406EC6480948050030205D00205F7
:1004960068751F02E51FC3132417F8E6543F44305E
:1004A600FF7408251FF8A6077409251FF9E4FAFB4F
:1004B6007528017D017F04120A8A751E0BD3E51E7D
:1004C60094007480948040071209E9151E80EE207E
:1004D600B308E51FC3132417F806E51FC313FF244B
:1004E60017F8E6FE20E0030205D00205C8E4F51F72
:1004F600E51FC3132417F8E6FF7804A2E713D8FB19
:10050600543F4430FF7408251FF8A6077408251FBA
:10051600F9E4FAFB7528017D017F06120A8A751E29
:100526000BD3E51E94007480948040071209E915E8
:100536001E80EE20B30BE51FC3132417F874102694
:10054600F6E51FC313FF2417F8E6FE7804A2E713A7
:10055600D8FBFD3395E0FCD3ED9406EC64809480E3
:10056600406874172FF8EE540FF6805EE4F51FE529
:100576001FC3132417F8E6543F4430FF7408251FA1
:10058600F8A6077409251FF9E4FAFB7528017D0111
:100596007F07120A8A751E0BD3E51E940074809499
:1005A6008040071209E9151E80EE20B308E51FC337
:1005B600132417F806E51FC313FF2417F8E6FE30C9
:1005C600E00874172FF8EE54F0F67B007A007917DE
:0605D60012094702002A91
:1005DC00752007752102E4F5227BFF7A0979B6753F
:1005EC002802FDFF120A8AAF201520EF70030207C4
:1005FC006774172520F8E6543F4430FFE52025E0CA
:10060C002409F8A60774172520F8E6FF7804A2E75A
:10061C0013D8FB543F4430FFE52025E02408F8A60E
:10062C0007E522704BD3E5219408748094805040E8
:10063C00E52075F002A42408F9E4FAFB752802AD54
:10064C0022AF21120A8A05210521D3E521940874D1
:10065C008094807BFF40097A0979B975280180075D
:10066C007A0979BB752802AD22AF21120A8A0521BD
:10067C00E5226003020716E521640B6003020716EE
:10068C00E52025E02409F8E6540F14B40700505E69
:10069C009006AA75F003A4C58325F0C583730206E2
:1006AC00BF0206C70206CF0206D70206DF0206E724
:1006BC000206EF7BFF7A0979BD802E7BFF7A0979E0
:1006CC00C380267BFF7A0979C9801E7BFF7A097962
:1006DC00CF80167BFF7A0979D5800E7BFF7A09795A
:1006EC00DB80067BFF7A0979E1752805800FE52010
:1006FC0075F002A42409F9E4FAFB752801AD22AFC8
:10070C0021120A8AE4F521752201E52264016003B5
:10071C000205F3C3E521940974809480400302051B
:10072C00F3E52075F002A42408F9E4FAFB7528021D
:10073C00AD22AF21120A8A05210521C3E5219406B9
:10074C007480948050107BFF7A0979E7752801AD8D
:10075C0022AF21120A8A05210205F37520077521A3
:04076C0002E4F5228C
:010770002266
:1009E9007F01EFD394007480948040217E26EED35A
:1009F90094007480948040127D82EDD394007480B9
:0D0A0900948040031D80F31E80E41F80D503
:010A160022BD
:03000300020909E6
:0F090900C0E0C0D075D000C004C005C006C00754
:10091800E4FC1209E9E516700575160D8002151636
:100928007C0BECD394007480948040061209E91C77
:0209380080F04D
:0D093A00D007D006D005D004D0D0D0E032D8
:10077D00020006E493A3F8E493A34003F68001F28C
:10078D0008DFF48029E493A3F85407240CC8C3337D
:10079D00C4540F4420C8834004F456800146F6DF4C
:1007AD00E4800B0102040810204080900B0EE47EC3
:1007BD00019360BCA3FF543F30E509541FFEE49341
:1007CD00A360010ECF54C025E060A840B8E493A308
:1007DD00FAE493A3F8E493A3C8C582C8CAC583CA33
:1007ED00F0A3C8C582C8CAC583CADFE9DEE780BEEB
:010B1A0000DA
:1007FD00BB010689828A83E0225002E722BBFE02FA
:09080D00E32289828A83E493222C
:10081600BB010CE58229F582E5833AF583E0225097
:1008260006E92582F8E622BBFE06E92582F8E222E1
:0D083600E58229F582E5833AF583E49322FB
:10084300F8BB010DE58229F582E5833AF583E8F0EB
:10085300225006E92582C8F622BBFE05E92582C897
:02086300F2227F
:00000001FF
