:030000000208FEF5
:0C08FE00787FE4F6D8FD758122020945E0
:100C9E007580FFC2A5D2A6D2A7AF80C2A7EF20E76C
:010CAE00F64F
:010CAF002222
:100CB000AE07120C9EC2A7C2A5C2A68E80D2A7C242
:020CC000A72269
:060C6E0014F912098AFFCF
:100C7400AE07120C9EC2A7D2A5C2A68E80D2A7C26E
:020C8400A722A5
:100C0C00120BE8120BE8120BE87F38120CB07F08BD
:100C1C00120CB07F01120CB07F06120CB07F0C02CC
:020C2C000CB00A
:100C8600E4FEED146007047008AE078004EF24400C
:080C9600FEEE4480FF020CB0E9
:100C2E008B1C8A1D891E120C86AF1F151FEF6011BB
:100C3E00AB1C051EE51EAA1D7002051D120C6E8052
:020C4E00E8229A
:060B5A008B208A21892294
:100B6000E4FCFFFD8021AB20AA21A92212098A60A2
:100B70001B0522E52270020521120C6EAF040CEF5A
:0C0B8000640F70E27D01FF120C8680DA29
:010B8C002246
:050BE8007F38120CB083
:100BED007F13EFD394007480948040127E82EED3F5
:0E0BFD0094007480948040031E80F31F80E4F7
:010C0B0022C6
:0E0CC2008183858B87898D8082848A86888CC9
:060BBB008B178A1889194E
:100BC100751A07AF1A151AEF601CE51A900CC2933B
:100BD100FF1209F2AB17AA18A919851A82758300A9
:060BE100EF1209D080DDD7
:010BE70022EB
:060B21008B178A188919E8
:100B2700751A07E4FD7F8E801EAF1A151AEF601C39
:100B3700E51A900CC993FFAB17AA18A919851A8251
:100B47007583001209A3FD120A9E80DD7D807F8ECA
:030B5700020A9EF1
:100C50008F1A8D1BE4FD7F8E120A9EE51A900CC937
:0E0C600093FFAD1B120A9E7D807F8E020A9EBE
:1009F200E4FEFDF9C29200C29000D29200EEC394CE
:100A020008748094805011EF139291EFC313FFD2B8
:100A12009000C290000E80E5E4FEEEC3940874805C
:100A22009480501AA291E433F9C43333335480FFD3
:100A3200EDC3134FFDD29000C290000E80DCC29233
:0C0A420000D29000C29100D29100AF05DC
:010A4E002285
:100A9E00E4FEC29200C29000D29200EEC39408749B
:100AAE008094805011EF139291EFC313FFD29000F8
:100ABE00C290000E80E5E4FEEEC39408748094802C
:100ACE005011ED139291EDC313FDD29000C2900020
:060ADE000E80E5C292004B
:010AE40022EF
:100AE50020200031204D6F6E003220547565003393
:100AF50020576564003420546875003520467269B6
:100B050000362053617400372053756E006572728C
:0C0B15006F720032300020002E003A0009
:070CD00001160041000000C5
:10000600C2AF120C0CD288D28AD2A8C2AAD2AF90A2
:100016000000E0700E7B017A007902120BBB12071A
:100026007880EC900000E060E6900000E0FF70034E
:1000360002076C14B407004003020759900050757C
:10004600F003A4C58325F0C583730200650201553C
:100056000202460203360204870205780206697424
:10006600012FF582E43400F583E0FF7804A2E7135C
:10007600D8FB75F00AA4FEEF540F2E900001F02075
:10008600B334E004F0E0D3943B748094804002E4FF
:10009600F0900001E0FF75F00A84C454F0FEEF759D
:1000A600F00A84E5F02EFF900000E02401F582E4DA
:1000B6003400F583EFF0C2AF7BFF7A0A79E5751F4E
:1000C600027D017F06120C2E751602D3E5169400EA
:1000D600748094804007120B8D151680EE900000F8
:1000E600E0FF2401F582E43400F583E0543F443018
:1000F600FEEF25E02407F8A606900000E0FF2401A5
:10010600F582E43400F583E0FE7804A2E713D8FB19
:10011600543F4430FEEF25E02406F8A60690000082
:10012600E075F002A42406F9E4FAFB751F027D01CE
:100136007F06120C2ED2AF751602D3E51694007404
:10014600809480500302002F120B8D151680EB90C1
:100156000000E0FC2401F582E43400F583E0FE783B
:1001660004A2E713D8FB75F00AA4FDEE540F2D90F8
:100176000001F020B331E004F0E0D3943B748094A6
:10018600804002E4F0900001E0FF75F00A84C45458
:10019600F0FEEF75F00A84E5F02EFF74012CF5826F
:1001A600E43400F583EFF0C2AF7BFF7A0A79E57598
:1001B6001F027D017F03120C2E751602D3E51694DD
:1001C60000748094804007120B8D151680EE900007
:1001D60000E0FF2401F582E43400F583E0543F4457
:1001E60030FEEF25E02407F8A606900000E0FF2485
:1001F60001F582E43400F583E0FE7804A2E713D823
:10020600FB543F4430FEEF25E02406F8A606900096
:1002160000E075F002A42406F9E4FAFB751F027DDE
:10022600017F03120C2ED2AF751602D3E516940089
:1002360074809480500302002F120B8D151680EBEC
:10024600900000E0FC2401F582E43400F583E0FE32
:100256007804A2E713D8FB75F00AA4FDEE540F2D1F
:10026600900001F020B331E004F0E0D394177480DD
:1002760094804002E4F0900001E0FF75F00A84C427
:1002860054F0FEEF75F00A84E5F02EFF74012CF5AC
:1002960082E43400F583EFF0C2AF7BFF7A0A79E59A
:1002A600751F027D01E4FF120C2E751602D3E516AA
:1002B6009400748094804007120B8D151680EE9082
:1002C6000000E0FF2401F582E43400F583E0543FAA
:1002D6004430FEEF25E02407F8A606900000E0FF74
:1002E6002401F582E43400F583E0FE7804A2E713E6
:1002F600D8FB543F4430FEEF25E02406F8A60690CE
:100306000000E075F002A42406F9E4FAFB751F026A
:100316007D01FF120C2ED2AF751602D3E51694009E
:1003260074809480500302002F120B8D151680EBFB
:10033600900000E0FC2401F582E43400F583E0FE41
:100346007804A2E713D8FB75F00AA4FDEE540F2D2E
:10035600900001F020B332E004F0E0D394077480FB
:10036600948040037401F0900001E0FF75F00A8468
:10037600C454F0FEEF75F00A84E5F02EFF74012CEC
:10038600F582E43400F583EFF0C2AF7BFF7A0A7999
:10039600E5751F02E4FD7F0A120C2E751602D3E5E1
:1003A600169400748094804007120B8D151680EE0B
:1003B600900000E0FF2401F582E43400F583E05468
:1003C6003F4430FEEF25E02407F8A606900000E043
:1003D600FF2401F582E43400F583E0FE7804A2E709
:1003E60013D8FB543F4430FEEF25E02406F8A6065A
:1003F600900005E0540F14B40700505B900410758C
:10040600F003A4C58325F0C5837302042502042DD9
:1004160002043502043D02044502044D0204557BE4
:10042600FF7A0A79E880367BFF7A0A79EE802E7B9E
:10043600FF7A0A79F480267BFF7A0A79FA801E7B96
:10044600FF7A0B790080167BFF7A0B7906800E7B8C
:10045600FF7A0B790C80067BFF7A0B7912751F05E4
:10046600E4FD7F0B120C2ED2AF751602D3E516945F
:100476000074809480500302002F120B8D15168095
:10048600EB900000E0FC2401F582E43400F583E003
:10049600FE7804A2E713D8FB75F00AA4FDEE540F0C
:1004A6002D900001F020B332E004F0E0D3941F74E5
:1004B60080948040037401F0900001E0FF75F00A1B
:1004C60084C454F0FEEF75F00A84E5F02EFF740143
:1004D6002CF582E43400F583EFF0C2AF7BFF7A0A95
:1004E60079E5751F02E4FD7F08120C2E751602D3FE
:1004F600E5169400748094804007120B8D151680C3
:10050600EE900000E0FF2401F582E43400F583E07C
:10051600543F4430FEEF25E02407F8A6069000007D
:10052600E0FF2401F582E43400F583E0FE7804A2BE
:10053600E713D8FB543F4430FEEF25E02406F8A627
:1005460006900000E075F002A42406F9E4FAFB75B3
:100556001F02FD7F08120C2ED2AF751602D3E516C8
:10056600940074809480500302002F120B8D151690
:1005760080EB900000E0FC2401F582E43400F58372
:10058600E0FE7804A2E713D8FB75F00AA4FDEE544A
:100596000F2D900001F020B332E004F0E0D3940C6C
:1005A6007480948040037401F0900001E0FF75F0C0
:1005B6000A84C454F0FEEF75F00A84E5F02EFF7449
:1005C600012CF582E43400F583EFF0C2AF7BFF7AAD
:1005D6000A79E5751F02E4FD7F05120C2E751602D9
:1005E600D3E5169400748094804007120B8D15167F
:1005F60080EE900000E0FF2401F582E43400F583EC
:10060600E0543F4430FEEF25E02407F8A6069000AC
:1006160000E0FF2401F582E43400F583E0FE78046F
:10062600A2E713D8FB543F4430FEEF25E02406F83A
:10063600A606900000E075F002A42406F9E4FAFB91
:10064600751F02FD7F05120C2ED2AF751602D3E57B
:1006560016940074809480500302002F120B8D159F
:100666001680EB900000E0FC2401F582E43400F5EE
:1006760083E0FE7804A2E713D8FB75F00AA4FDEE2A
:10068600540F2D900001F020B331E004F0E0D39434
:1006960063748094804002E4F0900001E0FF75F0FE
:1006A6000A84C454F0FEEF75F00A84E5F02EFF7458
:1006B600012CF582E43400F583EFF0C2AF7BFF7ABC
:1006C6000A79E5751F02E4FD7F02120C2E751602EB
:1006D600D3E5169400748094804007120B8D15168E
:1006E60080EE900000E0FF2401F582E43400F583FB
:1006F600E0543F4430FEEF25E02407F8A6069000BC
:1007060000E0FF2401F582E43400F583E0FE78047E
:10071600A2E713D8FB543F4430FEEF25E02406F849
:10072600A606900000E075F002A42406F9E4FAFBA0
:10073600751F02FD7F02120C2ED2AF751602D3E58D
:1007460016940074809480500302002F120B8D15AE
:100756001680EB7BFF7A0B7912751F05E4FD7F0B84
:10076600120C2E02002F7B017A007902120B210255
:02077600002958
:10077800751707751802E4F5197BFF7A0B79187558
:100788001F02FDFF120C2EAF171517EF700302089A
:10079800FD74022517F582E43400F583E0543F44E4
:1007A80030FFE51725E02409F8A60774022517F598
:1007B80082E43400F583E0FF7804A2E713D8FB5401
:1007C8003F4430FFE51725E02408F8A607D3E517CE
:1007D8009403748094804040E51775F002A42408BF
:1007E800F9E4FAFB751F02AD19AF18120C2E0518A3
:1007F8000518D3E5189408748094807BFF40097A23
:100808000B791B751F0180077A0B791D751F02ADC7
:1008180019AF18120C2E0518E517640360030208B7
:10082800B574022517F582E43400F583E0540F14FB
:10083800B40700505B90084B75F003A4C58325F0FE
:10084800C58373020860020868020870020878020B
:1008580008800208880208907BFF7A0A79E8803DC0
:100868007BFF7A0A79EE80357BFF7A0A79F4802D4E
:100878007BFF7A0A79FA80257BFF7A0B7900801D45
:100888007BFF7A0B790680157BFF7A0B790C800D3C
:100898007D01AF17120C507BFF7A0B7912751F057B
:1008A800AD19AF18120C2EE4F518751901C3E51728
:1008B800940374809480400302078FE51775F00253
:1008C800A42408F9E4FAFB751F02AD19AF18120C3D
:1008D8002E05180518C3E5189406748094805010E6
:1008E8007BFF7A0B791F751F01AD19AF18120C2EFB
:0508F800051802078F46
:0108FD0022D8
:100B8D007F01EFD394007480948040217E26EED3B4
:100B9D0094007480948040127D82EDD39400748013
:0D0BAD00948040031D80F31E80E41F80D55E
:010BBA002218
:03000300020A4F9F
:100A4F00C0E0C083C082C0D075D000C004C005C054
:030A5F0006C007C7
:100A6200E4FC120B8D20B223900000E070057407A5
:100A7200F08006900000E014F07C0BECD39400743C
:0B0A82008094804006120B8D1C80F059
:100A8D00D007D006D005D004D0D0D082D083D0E00E
:010A9D003226
:10090A00020006E493A3F8E493A34003F68001F2FD
:10091A0008DFF48029E493A3F85407240CC8C333EE
:10092A00C4540F4420C8834004F456800146F6DFBD
:10093A00E4800B0102040810204080900CD0E47E71
:10094A00019360BCA3FF543F30E509541FFEE493B2
:10095A00A360010ECF54C025E060A840B8E493A379
:10096A00FAE493A3F8E493A3C8C582C8CAC583CAA4
:10097A00F0A3C8C582C8CAC583CADFE9DEE780BE5C
:010CD700001C
:10098A00BB010689828A83E0225002E722BBFE026B
:09099A00E32289828A83E493229E
:1009A300BB010CE58229F582E5833AF583E0225009
:1009B30006E92582F8E622BBFE06E92582F8E22253
:0D09C300E58229F582E5833AF583E493226D
:1009D000F8BB010DE58229F582E5833AF583E8F05D
:1009E000225006E92582C8F622BBFE05E92582C809
:0209F000F222F1
:00000001FF
