:03000000020A2DC4
:0C0A2D00787FE4F6D8FD758120020A7481
:100D26007580FFC2A5D2A6D2A7AF80C2A7EF20E7E3
:010D3600F6C6
:010D37002299
:100D3800AE07120D26C2A7C2A5C2A68E80D2A7C230
:020D4800A722E0
:100D4A00AE07120D26C2A7D2A5C2A68E80D2A7C20E
:020D5A00A722CE
:100CCE00120CAA120CAA120CAA7F38120D387F0829
:100CDE00120D387F01120D387F06120D387F0C026F
:020CEE000D38BF
:100D0E00E4FEED146007047008AE078004EF244083
:080D1E00FEEE4480FF020D38D7
:100C82008B1D8A1E891F120D0EAF201520EF6017D3
:100C9200AB1D051FE51FAA1E7002051E14F91208DE
:080CA2009BFF120D4A80E222C3
:050CAA007F38120D3837
:100CAF007F13EFD394007480948040127E82EED332
:0E0CBF0094007480948040031E80F31F80E434
:010CCD002204
:0E0D5C008183858B87898D8082848A86888C2E
:060C55008B178A188919B3
:100C5B00751A07AF1A151AEF601CE51A900D5C9305
:100C6B00FF120AB9AB17AA18A919851A8275830046
:060C7B00EF1208E180DD2C
:010C81002250
:060BEE008B178A1889191B
:100BF400751A07E4FD7F8E801EAF1A151AEF601C6C
:100C0400E51A900D6393FFAB17AA18A919851A82E8
:100C14007583001208B4FD120B6580DD7D807F8E24
:030C2400020B655B
:100CF0008F1A8D1BE4FD7F8E120B65E51A900D6334
:0E0D000093FFAD1B120B657D807F8E020B658D
:100AB900E4FEFDF9C29200C29000D29200EEC39406
:100AC90008748094805011EF139291EFC313FFD2F1
:100AD9009000C290000E80E5E4FEEEC39408748095
:100AE9009480501AA291E433F9C43333335480FF0C
:100AF900EDC3134FFDD29000C290000E80DCC2926C
:0C0B090000D29000C29100D29100AF0514
:010B150022BD
:100B6500E4FEC29200C29000D29200EEC3940874D3
:100B75008094805011EF139291EFC313FFD2900030
:100B8500C290000E80E5E4FEEEC394087480948064
:100B95005011ED139291EDC313FDD29000C2900058
:060BA5000E80E5C2920083
:010BAB002227
:100BAC0020200031204D6F6E0032205475650033CB
:100BBC0020576564003420546875003520467269EE
:100BCC0000362053617400372053756E00657272C5
:100BDC006F7200706D00616D0032300020002E00CD
:020BEC003A00CD
:0B0D6A000116004100010041000001E3
:10000600C2AF120CCED288D28AD2A8C2AAD2AF90E0
:100016000001E070117B017A007903120C5512057C
:100026004812071580E9900001E060E3900001E0C6
:10003600FF700302053C14B4080040030205299032
:10004600005375F003A4C58325F0C5837302006BC6
:100056000200D10201380202310203820203EA02DF
:1000660004510204BB74022FF582E43400F583E0E8
:10007600FF7804A2E713D8FB75F00AA4FEEF540F2D
:100086002E900002F020B334E004F0E0D3943B74E9
:100096008094804002E4F0900002E0FF75F00A844C
:1000A600C454F0FEEF75F00A84E5F02EFF900001CF
:1000B600E02402F582E43400F583EFF0900001E0DD
:1000C600F51A7B027D017F060204B5900001E0FC73
:1000D6002402F582E43400F583E0FE7804A2E713F7
:1000E600D8FB75F00AA4FDEE540F2D900002F02007
:1000F600B331E004F0E0D3943B748094804002E492
:10010600F0900002E0FF75F00A84C454F0FEEF752B
:10011600F00A84E5F02EFF74022CF582E43400F533
:1001260083EFF0900001E0F51A7B027D017F030268
:1001360004B5900001E0FC2402F582E43400F58366
:10014600E0FE7804A2E713D8FB75F00AA4FDEE548E
:100156000F2D900002F020B331E004F0E0D39417A5
:10016600748094804002E4F0900002E0FF75F00A8B
:1001760084C454F0FEEF75F00A84E5F02EFF740295
:100186002CF582E43400F583EFF0900000E0700374
:10019600020222900005E0FB7804A2E713D8FBFADE
:1001A600FF3395E0FE7C007D0A120903EB540FFD38
:1001B6003395E0FCEF2DFFEE3CFED3EF940CEE649E
:1001C6008094804047EF24F4FFEE34FFFE7C007DF0
:1001D6000A120915EFC454F0FBEAFF3395E0FE7CE2
:1001E600007D0A120903900005E0540FFD3395E0E7
:1001F600FCEF2DFFEE3CCF24F4CF34FFFE7C007DD8
:100206000A120915EB2D900002F080007B017A009E
:1002160079027520027D01E4FF120C82900001E054
:10022600F51A7B027D01E4FF0204B5900001E0FCB3
:100236002402F582E43400F583E0FE7804A2E71395
:10024600D8FB75F00AA4FDEE540F2D900002F020A5
:10025600B332E004F0E0D3940774809480400374D2
:1002660001F0900002E0FF75F00A84C454F0FEEF3E
:1002760075F00A84E5F02EFF74022CF582E4340052
:10028600F583EFF0C2AF7BFF7A0B79AC752002E401
:10029600FD7F0A120C82751602D3E516940074804F
:1002A60094804007120C27151680EE900001E0FF9F
:1002B6002402F582E43400F583E0543F4430FEEF37
:1002C60025E02407F8A606900001E0FF2402F58247
:1002D600E43400F583E0FE7804A2E713D8FB543F2C
:1002E6004430FEEF25E02406F8A606900006E0540A
:1002F6000F14B40700505B90030B75F003A4C5837D
:1003060025F0C5837302032002032802033002038B
:10031600380203400203480203507BFF7A0B79AF91
:1003260080367BFF7A0B79B5802E7BFF7A0B79BB03
:1003360080267BFF7A0B79C1801E7BFF7A0B79C7FB
:1003460080167BFF7A0B79CD800E7BFF7A0B79D3F3
:1003560080067BFF7A0B79D9752005E4FD7F0B12A9
:100366000C82D2AF751602D3E51694007480948081
:100376005003020032120C27151680EB900001E0A4
:10038600FC2402F582E43400F583E0FE7804A2E75B
:1003960013D8FB75F00AA4FDEE540F2D900002F061
:1003A60020B332E004F0E0D3941F748094804003BD
:1003B6007401F0900002E0FF75F00A84C454F0FE68
:1003C600EF75F00A84E5F02EFF74022CF582E43412
:1003D60000F583EFF0900001E0F51A7B02E4FD7F63
:1003E600080204B5900001E0FC2402F582E4340022
:1003F600F583E0FE7804A2E713D8FB75F00AA4FDA6
:10040600EE540F2D900002F020B332E004F0E0D35A
:10041600940C7480948040037401F0900002E0FF15
:1004260075F00A84C454F0FEEF75F00A84E5F02EE8
:10043600FF74022CF582E43400F583EFF09000019E
:10044600E0F51A7B02E4FD7F058064900001E0FC84
:100456002402F582E43400F583E0FE7804A2E71373
:10046600D8FB75F00AA4FDEE540F2D900002F02083
:10047600B331E004F0E0D39463748094804002E4E6
:10048600F0900002E0FF75F00A84C454F0FEEF75A8
:10049600F00A84E5F02EFF74022CF582E43400F5B0
:1004A60083EFF0900001E0F51A7B02E4FD7F021273
:1004B60009A002003220B306900000E0F4F090009C
:1004C60000E06047900005E0FB7804A2E713D8FB44
:1004D600FF3395E0FE7C007D0A120903EB540FFD05
:1004E6003395E0FCEF2DFFEE3CFED3EF940CEE646B
:1004F6008094807BFF40067A0B79DF80047A0B7943
:10050600E27520027D017F0A120C82751605D3E57D
:10051600169400748094805003020032120C271542
:100526001680EB7BFF7A0B79D9752005E4FD7F0BEE
:10053600120C820200327B017A007903120BEE0262
:02054600002C87
:10071500751707751802E4F5197BFF7A0B79E575EE
:100725002002FDFF120C82AF171517EF70030208A8
:100735009A74032517F582E43400F583E0543F44A9
:1007450030FFE51725E02409F8A60774032517F5FA
:1007550082E43400F583E0FF7804A2E713D8FB5464
:100765003F4430FFE51725E02408F8A607D3E51731
:100775009403748094804040E51775F002A4240822
:10078500F9E4FAFB752002AD19AF18120C820518B1
:100795000518D3E5189408748094807BFF40097A86
:1007A5000B79E875200180077A0B79EA752002AD8F
:1007B50019AF18120C820518E517640360030208C7
:1007C5005274032517F582E43400F583E0540F14C1
:1007D500B40700505B9007E875F003A4C58325F0C6
:1007E500C583730207FD02080502080D02081502FC
:1007F500081D02082502082D7BFF7A0B79AF803D85
:100805007BFF7A0B79B580357BFF7A0B79BB802D21
:100815007BFF7A0B79C180257BFF7A0B79C7801D19
:100825007BFF7A0B79CD80157BFF7A0B79D3800D11
:100835007D01AF17120CF07BFF7A0B79D975200576
:10084500AD19AF18120C82E4F518751901C3E51737
:10085500940374809480400302072CE51775F00219
:10086500A42408F9E4FAFB752002AD19AF18120C9F
:100875008205180518C3E5189406748094805010F5
:100885007BFF7A0B79EC752001AD19AF18120C823C
:05089500051802072C0C
:01089A00223B
:10054800900008E0FB7804A2E713D8FBFF3395E09E
:10055800FE7C007D0A120903EB540FFD3395E0FC85
:10056800EF2DFFEE3CFEEF64044E70047F01800225
:100578007F00EF440F6059900007E0FF3395E0FEDD
:10058800D3EF941EEE6480948040047D0180027D48
:10059800007804EDA2E713D8FB75F00AA4FDD3EFA9
:1005A800941EEE6480948040047F0180027F00EFF7
:1005B800540F2D601B9000077401F0A3E004F0E0D5
:1005C800FD7F05120CF0900007E0FD7F04120CF08F
:1005D800900008E0FB7804A2E713D8FBFF3395E00E
:1005E800FE7C007D0A120903EB540FFD3395E0FCF5
:1005F800EF2DFFEE3CFEEF64024E707B900007E0AB
:10060800FF3395E0FED3EF941CEE648094804004A1
:100618007D0180027D007804EDA2E713D8FB75F018
:100628000AA4FDD3EF941CEE6480948040047F01FB
:1006380080027F00EF540F2D603D900009E0FF78A5
:1006480004A2E713D8FB75F00AA4FEEF540F2E702E
:10065800047F0180027F00EF5403601B9000077441
:1006680001F0A3E004F0E0FD7F05120CF090000714
:10067800E0FD7F04120CF0900000E0700302071404
:10068800900005E0FB7804A2E713D8FBFAFF339546
:10069800E0FE7C007D0A120903EB540FFD3395E060
:1006A800FCEF2DFFEE3CFED3EF940CEE64809480BB
:1006B800404AEF24F4FFEE34FFFE7C007D0A120965
:1006C80015EFC454F0FBEAFF3395E0FE7C007D0A89
:1006D800120903900005E0540FFD3395E0FCEF2D5F
:1006E800FFEE3CCF24F4CF34FFFE7C007D0A1209D4
:1006F80015EB2DF07BFF7A0B79DF80067BFF7A0BF9
:0D07080079E27520027D017F0A120C822229
:1009A0008F178D188B19C2AF7BFF7A0B79AC75202E
:1009B00002120C82D3E519940074809480400712CF
:1009C0000C27151980EE7402251AF582E43400F51F
:1009D00083E0543F4430FFE51A25E02407F8A607DA
:1009E0007402251AF582E43400F583E0FF7804A24E
:1009F000E713D8FB543F4430FFE51A25E02406F8FE
:100A0000A607E51A75F002A42406F9E4FAFB75209E
:100A100002AD18AF17120C82D2AFD3E5199400744F
:0D0A20008094804007120C27151980EE22EB
:100C27007F01EFD394007480948040217E26EED319
:100C370094007480948040127D82EDD39400748078
:0D0C4700948040031D80F31E80E41F80D5C3
:010C5400227D
:03000300020B16D7
:100B1600C0E0C083C082C0D075D000C004C005C08C
:030B260006C007FF
:100B2900E4FC120C2720B223900001E07005740741
:100B3900F08006900001E014F07C0BECD394007473
:0B0B49008094804006120C271C80F0F6
:100B5400D007D006D005D004D0D0D082D083D0E046
:010B6400325E
:100A3900020006E493A3F8E493A34003F68001F2CD
:100A490008DFF48029E493A3F85407240CC8C333BE
:100A5900C4540F4420C8834004F456800146F6DF8D
:100A6900E4800B0102040810204080900D6AE47EA6
:100A7900019360BCA3FF543F30E509541FFEE49382
:100A8900A360010ECF54C025E060A840B8E493A349
:100A9900FAE493A3F8E493A3C8C582C8CAC583CA74
:100AA900F0A3C8C582C8CAC583CADFE9DEE780BE2C
:010D7500007D
:10089B00BB010689828A83E0225002E722BBFE025B
:0908AB00E32289828A83E493228E
:1008B400BB010CE58229F582E5833AF583E02250F9
:1008C40006E92582F8E622BBFE06E92582F8E22243
:0D08D400E58229F582E5833AF583E493225D
:1008E100F8BB010DE58229F582E5833AF583E8F04D
:1008F100225006E92582C8F622BBFE05E92582C8F9
:02090100F222E0
:10090300EF8DF0A4A8F0CF8CF0A428CE8DF0A42E08
:02091300FE22C2
:10091500C2D5EC30E709B2D5E4C39DFDE49CFCEEFD
:1009250030E715B2D5E4C39FFFE49EFE12094BC321
:10093500E49DFDE49CFC800312094B30D507C3E41C
:060945009FFFE49EFE226C
:10094B00BC000BBE0029EF8DF084FFADF022E4CC90
:10095B00F875F008EF2FFFEE33FEEC33FCEE9DEC59
:10096B00984005FCEE9DFE0FD5F0E9E4CEFD22ED9F
:10097B00F8F5F0EE8420D21CFEADF075F008EF2FE9
:10098B00FFED33FD4007985006D5F0F222C398FDDA
:05099B000FD5F0EA2277
:00000001FF
