:03000000020A3BB6
:0C0A3B00787FE4F6D8FD758120020A8265
:100D34007580FFC2A5D2A6D2A7AF80C2A7EF20E7D5
:010D4400F6B8
:010D4500228B
:100D4600AE07120D34C2A7C2A5C2A68E80D2A7C214
:020D5600A722D2
:100D5800AE07120D34C2A7D2A5C2A68E80D2A7C2F2
:020D6800A722C0
:100CDC00120CB8120CB8120CB87F38120D467F08E3
:100CEC00120D467F01120D467F06120D467F0C0237
:020CFC000D46A3
:100D1C00E4FEED146007047008AE078004EF244075
:080D2C00FEEE4480FF020D46BB
:100C90008B1D8A1E891F120D1CAF201520EF6017B7
:100CA000AB1D051FE51FAA1E7002051E14F91208D0
:080CB000A3FF120D5880E2229F
:050CB8007F38120D461B
:100CBD007F13EFD394007480948040127E82EED324
:0E0CCD0094007480948040031E80F31F80E426
:010CDB0022F6
:0E0D7A008183858B87898D8082848A86888C10
:060C63008B178A188919A5
:100C6900751A07AF1A151AEF601CE51A900D7A93D9
:100C7900FF120AC7AB17AA18A919851A827583002A
:060C8900EF1208E980DD16
:010C8F002242
:060BFC008B178A1889190D
:100C0200751A07E4FD7F8E801EAF1A151AEF601C5D
:100C1200E51A900D8193FFAB17AA18A919851A82BC
:100C22007583001208BCFD120B7380DD7D807F8E00
:030C3200020B733F
:100CFE008F1A8D1BE4FD7F8E120B73E51A900D81FA
:0E0D0E0093FFAD1B120B737D807F8E020B7363
:100AC700E4FEFDF9C29200C29000D29200EEC394F8
:100AD70008748094805011EF139291EFC313FFD2E3
:100AE7009000C290000E80E5E4FEEEC39408748087
:100AF7009480501AA291E433F9C43333335480FFFE
:100B0700EDC3134FFDD29000C290000E80DCC2925D
:0C0B170000D29000C29100D29100AF0506
:010B230022AF
:100B7300E4FEC29200C29000D29200EEC3940874C5
:100B83008094805011EF139291EFC313FFD2900022
:100B9300C290000E80E5E4FEEEC394087480948056
:100BA3005011ED139291EDC313FDD29000C290004A
:060BB3000E80E5C2920075
:010BB9002219
:100BBA0020200031204D6F6E0032205475650033BD
:100BCA0020576564003420546875003520467269E0
:100BDA0000362053617400372053756E00657272B7
:100BEA006F7200706D00616D0032300020002E00BF
:020BFA003A00BF
:0F0D6A000116004100010041000300410000FF9D
:10000600C2AF120CDCD288D28AD2A8C2AAD2AF90D2
:100016000001E070117B017A007904120C6312056D
:100026004A12071D80E9900001E060E3900001E0BC
:10003600FF700302053E14B40800400302052B902E
:10004600005375F003A4C58325F0C5837302006BC6
:100056000200D10201380202310203820203EA02DF
:1000660004510204BB74032FF582E43400F583E0E7
:10007600FF7804A2E713D8FB75F00AA4FEEF540F2D
:100086002E900002F020B334E004F0E0D3943B74E9
:100096008094804002E4F0900002E0FF75F00A844C
:1000A600C454F0FEEF75F00A84E5F02EFF900001CF
:1000B600E02403F582E43400F583EFF0900001E0DC
:1000C600F51A7B057D017F060204B5900001E0FC70
:1000D6002403F582E43400F583E0FE7804A2E713F6
:1000E600D8FB75F00AA4FDEE540F2D900002F02007
:1000F600B331E004F0E0D3943B748094804002E492
:10010600F0900002E0FF75F00A84C454F0FEEF752B
:10011600F00A84E5F02EFF74032CF582E43400F532
:1001260083EFF0900001E0F51A7B057D017F030265
:1001360004B5900001E0FC2403F582E43400F58365
:10014600E0FE7804A2E713D8FB75F00AA4FDEE548E
:100156000F2D900002F020B331E004F0E0D39417A5
:10016600748094804002E4F0900002E0FF75F00A8B
:1001760084C454F0FEEF75F00A84E5F02EFF740394
:100186002CF582E43400F583EFF0900000E0700374
:10019600020222900006E0FB7804A2E713D8FBFADD
:1001A600FF3395E0FE7C007D0A12090BEB540FFD30
:1001B6003395E0FCEF2DFFEE3CFED3EF940CEE649E
:1001C6008094804047EF24F4FFEE34FFFE7C007DF0
:1001D6000A12091DEFC454F0FBEAFF3395E0FE7CDA
:1001E600007D0A12090B900006E0540FFD3395E0DE
:1001F600FCEF2DFFEE3CCF24F4CF34FFFE7C007DD8
:100206000A12091DEB2D900002F080007B017A0096
:1002160079027520027D01E4FF120C90900001E046
:10022600F51A7B057D01E4FF0204B5900001E0FCB0
:100236002403F582E43400F583E0FE7804A2E71394
:10024600D8FB75F00AA4FDEE540F2D900002F020A5
:10025600B332E004F0E0D3940774809480400374D2
:1002660001F0900002E0FF75F00A84C454F0FEEF3E
:1002760075F00A84E5F02EFF74032CF582E4340051
:10028600F583EFF0C2AF7BFF7A0B79BA752002E4F3
:10029600FD7F0A120C90751602D3E5169400748041
:1002A60094804007120C35151680EE900001E0FF91
:1002B6002403F582E43400F583E0543F4430FEEF36
:1002C60025E02407F8A606900001E0FF2403F58246
:1002D600E43400F583E0FE7804A2E713D8FB543F2C
:1002E6004430FEEF25E02406F8A606900007E05409
:1002F6000F14B40700505B90030B75F003A4C5837D
:1003060025F0C5837302032002032802033002038B
:10031600380203400203480203507BFF7A0B79BD83
:1003260080367BFF7A0B79C3802E7BFF7A0B79C9E7
:1003360080267BFF7A0B79CF801E7BFF7A0B79D5DF
:1003460080167BFF7A0B79DB800E7BFF7A0B79E1D7
:1003560080067BFF7A0B79E7752005E4FD7F0B129B
:100366000C90D2AF751602D3E51694007480948073
:100376005003020032120C35151680EB900001E096
:10038600FC2403F582E43400F583E0FE7804A2E75A
:1003960013D8FB75F00AA4FDEE540F2D900002F061
:1003A60020B332E004F0E0D3941F748094804003BD
:1003B6007401F0900002E0FF75F00A84C454F0FE68
:1003C600EF75F00A84E5F02EFF74032CF582E43411
:1003D60000F583EFF0900001E0F51A7B05E4FD7F60
:1003E600080204B5900001E0FC2403F582E4340021
:1003F600F583E0FE7804A2E713D8FB75F00AA4FDA6
:10040600EE540F2D900002F020B332E004F0E0D35A
:10041600940C7480948040037401F0900002E0FF15
:1004260075F00A84C454F0FEEF75F00A84E5F02EE8
:10043600FF74032CF582E43400F583EFF09000019D
:10044600E0F51A7B05E4FD7F058064900001E0FC81
:100456002403F582E43400F583E0FE7804A2E71372
:10046600D8FB75F00AA4FDEE540F2D900002F02083
:10047600B331E004F0E0D39463748094804002E4E6
:10048600F0900002E0FF75F00A84C454F0FEEF75A8
:10049600F00A84E5F02EFF74032CF582E43400F5AF
:1004A60083EFF0900001E0F51A7B05E4FD7F021270
:1004B60009A802003220B306900000E0F4F0900094
:1004C60000E06014900003E07BFF60067A0B79ED94
:1004D600800C7A0B79F080067BFF7A0B79BA75204F
:1004E600027D017F09120C90751604D3E51694005F
:1004F600748094804007120C35151680EE7BFF7AC7
:100506000B79BA7520027D017F09120C90751604CD
:10051600D3E5169400748094805003020032120CC6
:1005260035151680EB7BFF7A0B79E7752005E4FD20
:100536007F0B120C900200327B017A007904120BB9
:04054600FC02002C87
:10071D00751707751802E4F5197BFF7A0B79F375D8
:10072D002002FDFF120C90AF171517EF7003020892
:10073D00A274042517F582E43400F583E0543F4498
:10074D0030FFE51725E02409F8A60774042517F5F1
:10075D0082E43400F583E0FF7804A2E713D8FB545C
:10076D003F4430FFE51725E02408F8A607D3E51729
:10077D009403748094804040E51775F002A424081A
:10078D00F9E4FAFB752002AD19AF18120C9005189B
:10079D000518D3E5189408748094807BFF40097A7E
:1007AD000B79F675200180077A0B79F8752002AD6B
:1007BD0019AF18120C900518E517640360030208B1
:1007CD005A74042517F582E43400F583E0540F14B0
:1007DD00B40700505B9007F075F003A4C58325F0B6
:1007ED00C5837302080502080D02081502081D02D3
:1007FD00082502082D0208357BFF7A0B79BD803D57
:10080D007BFF7A0B79C380357BFF7A0B79C9802DFD
:10081D007BFF7A0B79CF80257BFF7A0B79D5801DF5
:10082D007BFF7A0B79DB80157BFF7A0B79E1800DED
:10083D007D01AF17120CFE7BFF7A0B79E775200552
:10084D00AD19AF18120C90E4F518751901C3E51721
:10085D009403748094804003020734E51775F00209
:10086D00A42408F9E4FAFB752002AD19AF18120C97
:10087D009005180518C3E5189406748094805010DF
:10088D007BFF7A0B79FA752001AD19AF18120C9018
:05089D000518020734FC
:0108A2002233
:10054A00900009E0FB7804A2E713D8FBFF3395E09B
:10055A00FE7C007D0A12090BEB540FFD3395E0FC7B
:10056A00EF2DFFEE3CFEEF64044E70047F01800223
:10057A007F00EF440F6059900008E0FF3395E0FEDA
:10058A00D3EF941EEE6480948040047D0180027D46
:10059A00007804EDA2E713D8FB75F00AA4FDD3EFA7
:1005AA00941EEE6480948040047F0180027F00EFF5
:1005BA00540F2D601B9000087401F0A3E004F0E0D2
:1005CA00FD7F05120CFE900008E0FD7F04120CFE70
:1005DA00900009E0FB7804A2E713D8FBFF3395E00B
:1005EA00FE7C007D0A12090BEB540FFD3395E0FCEB
:1005FA00EF2DFFEE3CFEEF64024E707B900008E0A8
:10060A00FF3395E0FED3EF941CEE6480948040049F
:10061A007D0180027D007804EDA2E713D8FB75F016
:10062A000AA4FDD3EF941CEE6480948040047F01F9
:10063A0080027F00EF540F2D603D90000AE0FF78A2
:10064A0004A2E713D8FB75F00AA4FEEF540F2E702C
:10065A00047F0180027F00EF5403601B900008743E
:10066A0001F0A3E004F0E0FD7F05120CFE90000803
:10067A00E0FD7F04120CFE900000E0700302071CEC
:10068A00900006E0FB7804A2E713D8FBFAFF339543
:10069A00E0FE7C007D0A12090BEB540FFD3395E056
:1006AA00FCEF2DFFEE3CFED3EF940CEE64809480B9
:1006BA0040509000037401F0EF24F4FFEE34FFFE83
:1006CA007C007D0A12091DEFC454F0FBEAFF339542
:1006DA00E0FE7C007D0A12090B900006E0540FFD33
:1006EA003395E0FCEF2DFFEE3CCF24F4CF34FFFE30
:1006FA007C007D0A12091DEB2DF07BFF7A0B79ED48
:10070A0080067BFF7A0B79F07520027D017F091242
:03071A000C90221E
:1009A8008F178D188B19C2AF7BFF7A0B79BA752018
:1009B80002120C90851916D3E51694007480948061
:1009C8004007120C35151680EE7403251AF582E4DB
:1009D8003400F583E0543F4430FFE51A25E024074E
:1009E800F8A6077403251AF582E43400F583E0FFBE
:1009F8007804A2E713D8FB543F4430FFE51A25E0FA
:100A08002406F8A607E51A75F002A42406F9E4FA04
:100A1800FB752002AD18AF17120C90D2AF851916CE
:100A2800D3E5169400748094804007120C3515168F
:030A380080EE222B
:100C35007F01EFD394007480948040217E26EED30B
:100C450094007480948040127D82EDD3940074806A
:0D0C5500948040031D80F31E80E41F80D5B5
:010C6200226F
:03000300020B24C9
:100B2400C0E0C083C082C0D075D000C004C005C07E
:030B340006C007F1
:100B3700E4FC120C3520B223900001E07005740824
:100B4700F08006900001E014F07C0BECD394007465
:0B0B57008094804006120C351C80F0DA
:100B6200D007D006D005D004D0D0D082D083D0E038
:010B72003250
:100A4700020006E493A3F8E493A34003F68001F2BF
:100A570008DFF48029E493A3F85407240CC8C333B0
:100A6700C4540F4420C8834004F456800146F6DF7F
:100A7700E4800B0102040810204080900D6AE47E98
:100A8700019360BCA3FF543F30E509541FFEE49374
:100A9700A360010ECF54C025E060A840B8E493A33B
:100AA700FAE493A3F8E493A3C8C582C8CAC583CA66
:100AB700F0A3C8C582C8CAC583CADFE9DEE780BE1E
:010D79000079
:1008A300BB010689828A83E0225002E722BBFE0253
:0908B300E32289828A83E4932286
:1008BC00BB010CE58229F582E5833AF583E02250F1
:1008CC0006E92582F8E622BBFE06E92582F8E2223B
:0D08DC00E58229F582E5833AF583E4932255
:1008E900F8BB010DE58229F582E5833AF583E8F045
:1008F900225006E92582C8F622BBFE05E92582C8F1
:02090900F222D8
:10090B00EF8DF0A4A8F0CF8CF0A428CE8DF0A42E00
:02091B00FE22BA
:10091D00C2D5EC30E709B2D5E4C39DFDE49CFCEEF5
:10092D0030E715B2D5E4C39FFFE49EFE120953C311
:10093D00E49DFDE49CFC800312095330D507C3E40C
:06094D009FFFE49EFE2264
:10095300BC000BBE0029EF8DF084FFADF022E4CC88
:10096300F875F008EF2FFFEE33FEEC33FCEE9DEC51
:10097300984005FCEE9DFE0FD5F0E9E4CEFD22ED97
:10098300F8F5F0EE8420D21CFEADF075F008EF2FE1
:10099300FFED33FD4007985006D5F0F222C398FDD2
:0509A3000FD5F0EA226F
:00000001FF
